:100000000C9434000C9451000C9451000C94510049
:100010000C9451000C9451000C9451000C9451001C
:100020000C9451000C9451000C9451000C9451000C
:100030000C9451000C946C000C9451000C945100E1
:100040000C9451000C9451000C9414010C94420136
:100050000C9451000C9451000C9451000C945100DC
:100060000C9451000C94510011241FBECFEFD8E026
:10007000DEBFCDBF11E0A0E0B1E0E0ECF3E002C0F4
:1000800005900D92A232B107D9F721E0A2E2B1E0CA
:1000900001C01D92A736B207E1F70E9453000C94ED
:1000A000DE010C9400000E94E30087E690E00E94CD
:1000B0006C01E1E8F0E08081897F8083808181604C
:1000C0008083EFE6F0E0808181608083789482E035
:1000D00091E00E949A01FFCF1F920F920FB60F92EC
:1000E00011241F932F933F934F935F936F937F93AD
:1000F0008F939F93AF93BF93EF93FF93CF93DF9330
:1001000000D0CDB7DEB780E390E39A8389838091F6
:1001100001018230C1F0833041F18130D9F5809105
:10012000000191E0980F909300018750803720F4F0
:1001300082E08093010131C087E08093000182E07A
:10014000809301012AC080910001880F0E94F20073
:10015000182F0E941001111104C083E08093010147
:100160001CC081E08093010118C08091000140E132
:10017000BE016F5F7F4F90E00E94A901CE01019602
:100180000E949A0180E291E00E949A0181E08093AE
:10019000010103C081E0809301010F900F90DF9176
:1001A000CF91FF91EF91BF91AF919F918F917F91EF
:1001B0006F915F914F913F912F911F910F900FBEC3
:1001C0000F901F90189587B18F7C87B988B1806395
:1001D00088B9E9EBF0E080818C7F808388E98093A7
:1001E000B800089594EA9093BC00ECEBF0E09081A5
:1001F0009923ECF78093BB0084E88093BC00ECEB80
:10020000F0E080818823ECF79091B900987F9831D5
:1002100029F081E0903419F480E0089580E0089599
:1002200084E98093BC0008951F920F920FB60F923D
:1002300011242F938F939F93EF93FF938091C0008E
:100240002091C6008C71E0912401EF5FEF719091D5
:100250002301E91739F0E0932401F0E0E95DFE4F56
:10026000208301C082E090912201892B809322019A
:10027000FF91EF919F918F912F910F900FBE0F9053
:100280001F9018951F920F920FB60F9211248F9303
:100290009F93EF93FF9390912601809125019817EA
:1002A00069F0E0912501EF5FEF71E0932501F0E047
:1002B000E95BFE4F80818093C60005C0E1ECF0E071
:1002C00080818F7D8083FF91EF919F918F910F901F
:1002D0000FBE0F901F9018951092260110922501C5
:1002E000109224011092230199231CF422E0209300
:1002F000C00090789093C5008093C40088E98093F3
:10030000C10086E08093C2000895209126012F5FEE
:100310002F71909125012917E1F3E22FF0E0E95BBD
:10032000FE4F808320932601E1ECF0E08081806223
:1003300080830895CF93DF93EC018881882331F087
:1003400021960E94850189918111FBCFDF91CF9188
:100350000895BB274A3031F4992322F4BDE29095E9
:1003600081959F4F0C94B501BB27FB015527AA2708
:10037000880F991FAA1FA41710F0A41B8395505132
:10038000B9F7A05DAA3308F0A95DA193009779F7AA
:10039000B111B1931192CB010C94CE01DC01FC019F
:1003A000672F71917723E1F7329704C07C916D93A9
:1003B00070836291AE17BF07C8F30895F894FFCF1A
:1003C00007010D0A5363616E204932432D62757334
:1003D00020666F7220646576696365733A0D0A0062
:0203E0002000FB
:00000001FF
