S00E000030326C6564732E737265630C
S11300000C9434000C943E000C943E000C943E007E
S11300100C943E000C943E000C943E000C943E0064
S11300200C943E000C943E000C943E000C943E0054
S11300300C943E000C943E000C943E000C943E0044
S11300400C943E000C943E000C943E000C943E0034
S11300500C943E000C943E000C943E000C943E0024
S11300600C943E000C943E0011241FBECFEFD8E048
S1130070DEBFCDBF0E9440000C9456000C940000DB
S1130080259A2D98389A409820E291E03FEF49E66E
S113009088E1315040408040E1F700C0000085B164
S11300A0822785B988B1892788B9F0CFF894FFCF22
S9030000FC
